:020000040800F2
:1000000048100220450300089D2C0008F526000832
:10001000992C0008D30E00086F450008000000006E
:100020000000000000000000000000008D02000839
:10003000851C000800000000E1020008293B0008C0
:1000400069030008690300086903000869030008E0
:1000500069030008690300086903000869030008D0
:1000600069030008690300086903000869030008C0
:1000700069030008690300086903000869030008B0
:1000800069030008690300086903000869030008A0
:10009000D90E00086903000869030008AD1D0008B7
:1000A0006903000869030008690300086903000880
:1000B00069030008A13B0008690300086903000800
:1000C0006903000869030008690300086903000860
:1000D00069030008D54100086903000869030008A6
:1000E0006903000869030008690300086903000840
:1000F0006903000869030008690300086903000830
:10010000690300086903000869030008690300081F
:100110006903000869030008AD3C00086903000892
:1001200069030008690300086903000869030008FF
:1001300069030008690300086903000869030008EF
:100140001910000869030008690300086903000822
:100150004D190008690300086903000869030008D5
:1001600069030008690300086903000869030008BF
:100170006903000869030008690300080000000023
:10018000690300086903000869030008690300089F
:10019000690300086903000869030008690300088F
:1001A00000000000000000006903000800F002F8F1
:1001B00000F05CF80AA090E8000C82448344AAF1A5
:1001C0000107DA4501D100F051F8AFF2090EBAE8A3
:1001D0000F0013F0010F18BFFB1A43F0010318477B
:1001E0006CA600008CA600000A444FF0000C10F82A
:1001F000013B13F0070408BF10F8014B1D1108BFA5
:1002000010F8015B641E05D010F8016B641E01F844
:10021000016BF9D113F0080F1EBF10F8014BAD1C94
:100220000C1B09D16D1E58BF01F801CBFAD505E0B2
:1002300014F8016B01F8016B6D1EF9D59142D6D30C
:10024000704700000023002400250026103A28BF34
:1002500078C1FBD8520728BF30C148BF0B60704738
:100260001FB509F065FD1FBD10B510BD00F01CFAEB
:100270001146FFF7F5FF06F019FA00F03AFA03B459
:10028000FFF7F2FF03BC00F09FFA00002A4B196849
:100290000868B0E8F04F80F30988BFF36F8F4FF024
:1002A000000080F3118870470000000006480068D5
:1002B000006880F3088862B661B6BFF34F8FBFF362
:1002C0006F8F00DF00BF00BF08ED00E0DFF80C001B
:1002D000016841F470010160704700BF88ED00E0E3
:1002E000EFF30980BFF36F8F134B1A681EF0100FE6
:1002F00008BF20ED108A20E9F04F106008B44FF0DD
:10030000500080F31188BFF34F8FBFF36F8F08F059
:100310007FFA4FF0000080F3118808BC1968086864
:10032000B0E8F04F1EF0100F08BFB0EC108A80F359
:100330000988BFF36F8F704724000020EFF305801A
:10034000704700000C48016841F4700101600B48DF
:1003500080470B480047FEE7FEE7FEE7FEE7FEE7C3
:10036000FEE7FEE7FEE7FEE7FEE700000548064978
:10037000044A064B7047000088ED00E0393B000856
:10038000AD010008480C022048100220480C022051
:100390009FED1A1AF5EE000A40EE010ABDEEE00AE2
:1003A000F5EEC00A10EE100AF1EE10FA38BF401E4A
:1003B00000EE100A1349F7EE001AB8EEC00A30EE4C
:1003C000C00ADFED0F0A20EE200AFCEEC00A10EE94
:1003D000900AC0F3080000EE900A01EB8000F8EEEE
:1003E000600A90ED011A70EE600A90ED000A71EE5D
:1003F000E01A21EE800A00EE810A704783F9223E5E
:100400000000004448A00008DFED190AB5EEC00A5C
:1004100060EE200ABDEEE01A11EE100AF1EE10FABD
:1004200038BF401E00EE100A1349F7EE001AB8EE6E
:10043000C00A30EEC00ADFED0F0A60EE200ABCEE03
:10044000E00A10EE100AC0F3080000EE100A01EBFB
:100450008000B8EE400A90ED011A70EEC00A90EDEF
:10046000000A71EEE01A21EE800A00EE810A704760
:1004700083F9223E0000004448A0000810B5431C48
:1004800002E010F8011B71B18107FAD14FF001327F
:1004900002C88C1A8C4314EAC211F9D0C01A0A0699
:1004A00003D0C01E10BDC01A10BD0A0401D0801EAA
:1004B00010BD0902FCD0401E10BD032A40F230805E
:1004C00010F0030C00F0158011F8013BBCF1020F95
:1004D000624498BF11F801CB00F8013B38BF11F816
:1004E000013BA2F1040298BF00F801CB38BF00F82D
:1004F000013B11F0030300F02580083AC0F00880AA
:1005000051F8043B083A51F804CBA0E80810F5E78D
:10051000121D5CBF51F8043B40F8043BAFF3008070
:10052000D20724BF11F8013B11F801CB48BF11F8E5
:10053000012B24BF00F8013B00F801CB48BF00F8B5
:10054000012B704710B5203AC0F00B80B1E818506D
:10055000203AA0E81850B1E81850A0E81850BFF4AD
:10056000F5AF5FEA027C24BFB1E81850A0E818504C
:1005700044BF18C918C0BDE810405FEA827C24BFA0
:1005800051F8043B40F8043B08BF7047D20728BF2E
:1005900031F8023B48BF11F8012B28BF20F8023B7D
:1005A00048BF00F8012B704702F0FF0343EA032223
:1005B00042EA024200F037B84FF0000200B513469D
:1005C00094469646203922BFA0E80C50A0E80C5073
:1005D000B1F12001BFF4F7AF090728BFA0E80C5024
:1005E00048BF0CC05DF804EB890028BF40F8042B1D
:1005F00008BF704748BF20F8022B11F0804F18BF8A
:1006000000F8012B704770477047704710B500F035
:100610002BF8006810BD10B5044600F025F8046002
:1006200010BD4FF000020429C0F0128010F0030C3E
:100630003FF4C4AFCCF1040CBCF1020F18BF00F8BA
:10064000012BA8BF20F8022BA1EB0C01FFF7B6BFCE
:100650005FEAC17C24BF00F8012B00F8012B48BFE2
:1006600000F8012B7047000000487047E40B02209F
:100670001FB584B000200A9C06AB04AA02A900940E
:10068000AFF3008018B1DDE9020108B010BD0348E6
:10069000204000F037F800200146F6E70000207CFB
:1006A00000487047E40B02207546FFF7F9FFAE469D
:1006B00005006946534620F00700854618B020B56E
:1006C000FFF754FEBDE820404FF000064FF0000752
:1006D0004FF000084FF0000B21F00701AC46ACE8EA
:1006E000C009ACE8C009ACE8C009ACE8C0098D4657
:1006F000704710B50446AFF300802046BDE81040B7
:10070000FFF7BDBD10B500F009F8BDE81040AFF32C
:100710000080002801D000F057B8704710B50228BB
:1007200003D0410103D50DA112E0002010BD01014D
:1007300001D50FA10CE0C10001D511A108E0810095
:1007400001D512A104E0400001D513A100E0002171
:1007500015A000F03FF8012010BD0000496E766141
:100760006C6964204F7065726174696F6E0000007F
:10077000446976696465204279205A65726F000089
:100780004F766572666C6F7700000000556E646589
:1007900072666C6F77000000496E65786163742043
:1007A000526573756C7400005349474650453A20B2
:1007B00041726974686D65746963206578636570FA
:1007C00074696F6E3A20000001491820ABBEFEE745
:1007D0002600020070B505460C460A2000E06D1C9C
:1007E00000F011F835B128780028F8D102E0641C37
:1007F00000F009F814B120780028F8D1BDE8704065
:100800000A20AFF3008008B569468DF80000032088
:10081000ABBE08BD7047CA430260704721B1826811
:1008200042F00102826003E0826822F001028260ED
:10083000704700000021084A1168084A1140D0E9B9
:1008400000231A4383681A43C3681A431143044AB6
:10085000C2F804137047000004230140E030FCFF9D
:10086000002001400146C86C80B27047024600205B
:1008700013680B400BB1012000E00020704700001E
:1008800030B50246002000235068104C20400D79FE
:100890000C6844EA05242043506090680C4C2040CA
:1008A000D1E903542C438D682C434D7944EA450427
:1008B00020439060D06A20F470000C7D641EE4B286
:1008C000234340EA0350D06230BD0000FFFEFFFC2E
:1008D000FDF7FFC0F0B504460D4600200021092DAC
:1008E00011DDE068A5F10A0606EB4607072606FAC1
:1008F00007F18843A5F10A0606EB460603FA06F15E
:100900000843E0600CE0206905EB4507072606FA7E
:1009100007F1884305EB450603FA06F10843206119
:10092000072A0FDA606B561E06EB86071F2606FAAB
:1009300007F18843561E06EB860605FA06F10843C2
:10094000606322E00D2A0FDA206BD61F06EB8607C4
:100950001F2606FA07F18843D61F06EB860605FA1E
:1009600006F10843206310E0E06AA2F10D0606EBF1
:1009700086071F2606FA07F18843A2F10D0606EB4B
:10098000860605FA06F10843E062F0BD816841F091
:10099000804181607047000038B10849096841F41E
:1009A0000001074AC2F8041306E00449096821F46B
:1009B0000001034AC2F804137047000004230140F9
:1009C0000020014010B52DED028BB0EE408AB0EE54
:1009D000480A03F01DFEBDEC028B10BD10B52DEDD5
:1009E000028BB0EE408AF0EE608AF0EE680AB0EE5C
:1009F000480A03F0A3FEBDEC028B10BD10B52DED2F
:100A0000028BB0EE408AB0EE480AFFF7C1FCBDECA5
:100A1000028B10BDF0EE400AF5EEC00AF1EE10FABE
:100A200002DDB0EE600A7047B1EE600AFBE700003D
:100A300018B19FED020A80ED000A70470000000027
:100A400018B19FED020A80ED000A7047DF8FB441B4
:100A500070B52DED0C8B84B006460C4615469FED07
:100A6000990AF0EE408A9FED970AB0EE409A9FED0A
:100A7000950AF0EE40BA9FED930AF0EE409A9FED92
:100A8000910AB0EE40AA0EB104B11DB904B0BDEC9C
:100A90000C8B70BD8C48FFF7CBFF8C48FFF7D0FF65
:100AA0008A48D0ED000A9FED8A1A60EE810AB0EE06
:100AB000600A00F039F9F0EE408A28EEA80AF0EE5C
:100AC000408A8248D0ED000AB0EE001A60EE810A3A
:100AD0009FED7F1A60EE810AB0EE600A00F024F903
:100AE000B0EE409A29EE090AB0EE409ADFED790A9D
:100AF000B7EE000A00EEA80ADFED770A00EEC90A99
:100B0000DFED760A20EE200A754880ED000A6E4877
:100B100090ED000ADFED730A80EE201AB7EE000AAE
:100B200031EE000A20EE000A6D48D0ED000A80EE9A
:100B3000801A6D4880ED001A94ED000AB5EEC00AE7
:100B4000F1EE10FA0DD194ED010AB5EEC00AF1EE06
:100B500010FA06D194ED020AB5EEC00AF1EE10FAD1
:100B600046D09FED580AB0EE408A002001900290D6
:100B70000390D4ED000A60EEA00A94ED011AD4EDC2
:100B8000011A41EE210A94ED021AD4ED021A41EE47
:100B9000210AB0EE600A00F0A9F8B0EE408A94EDA8
:100BA000000A20EE080A8DED010A94ED010A20EEFC
:100BB000080A8DED020A94ED020A20EE080A8DED76
:100BC000030ADDED010AF1EE600AB0EE600AFFF7FC
:100BD000F9FEF0EE409A9DED031AF0EE410A9DED0C
:100BE000021AB0EE410AFFF7F9FEB0EE40AA07E0A4
:100BF0009FED340AF0EE409A9FED320AB0EE40AA23
:100C000095ED000AB5EEC00AF1EE10FA0DD195EDA2
:100C1000010AB5EEC00AF1EE10FA06D195ED020A0E
:100C2000B5EEC00AF1EE10FA3CD0B0EE690A00F061
:100C30007BF8B0EE408AB0EE690AFFF7DFFEB0EE57
:100C400040DAB0EE4A0A00F06FF8F0EE40AAB0EEDB
:100C50004A0AFFF7D3FEB0EE40BA28EE2A0AD5EDD5
:100C6000010A20EE200AD5ED000A0DEE200A68EEFA
:100C70000B0A95ED021A00EE810AB0EE40CA95ED1E
:100C8000010A20EE0B0AD5ED020A0AEEE00AF0EEA8
:100C900040CAF0EE6C0AB0EE4C0AFFF79FFEF0EE91
:100CA00040BA03E09FED070AF0EE40BAB0EE4A1AF0
:100CB000F0EE690AB0EE6B0A304604F04DF800BF62
:100CC000E4E6000000000000000200200402002012
:100CD00035FA8E3CC1BFAD3B9DF8C5362F7C1C411B
:100CE00008020020506CC24A0C020020F0EE400ABC
:100CF000F6EE001A60EEA11AB0EE611AB0EE600ACC
:100D000010EE100A0749A1EB600000EE100A21EE78
:100D1000002AF7EE081A42EE401A61EE801AB0EE91
:100D2000610A7047DF59375F10B52DED028BB0EEC9
:100D3000408AB0EE480AFFF767FBBDEC028B10BD9E
:100D40002DE9F0412DED028B9AB00546B0EE408AB8
:100D50000E46174698460020179018901990149048
:100D6000159016904DB146B13FB1B8F1000F04D0C7
:100D7000B5EEC08AF1EE10FA05D100201AB0BDEC34
:100D8000028BBDE8F08196ED000A8DED170A96ED15
:100D9000010A8DED180A96ED020A8DED190A97EDFC
:100DA000000A8DED140A97ED010A8DED150A97EDF5
:100DB000020A8DED160A17AA14A9284603F01EFE92
:100DC000402104A8FFF7F8FB00200090019002905A
:100DD0000390002417A904A807F04EF900BF30E0E3
:100DE00004A800EB041090ED000AD5ED000A20EEF7
:100DF000200A04A800EB0410D0ED010A95ED011AB9
:100E000000EE810A04A800EB0410D0ED020A95ED73
:100E1000021A00EE810A04A800EB0410D0ED030AC8
:100E200095ED031A00EE810A20EE080AF0EE000AA2
:100E300080EE201A684600EB840080ED001A601CEA
:100E4000C4B2042CCCDB002410E005EB840090ED50
:100E5000000A684600EB8400D0ED000A30EE200A5C
:100E600005EB840080ED000A601CC4B2042CECDBAE
:100E7000284606F02DFC012080E708B54FF44070AD
:100E800001F04AFF4FF47A7004F014FB05F080FB88
:100E900007F082F804F0C4FB5A2147F2305004F006
:100EA00011F85A214EF6602002F012FF00200523AF
:100EB0001A460121009000F027F8002005231A4669
:100EC0000121009000F0C0F806F088FC04F030FA30
:100ED00008BD00BFFEE7000010B50221084800F081
:100EE0003BFA58B10221064800F05EF9054A00219C
:100EF000034800F054FB034800F05CFC10BD000008
:100F000000640040580602202DE9F0418AB00446F2
:100F10000D4616461F46DDF840800121082002F0EC
:100F200053F80121480602F05FF80121480602F05B
:100F30006BF800214FF0007002F066F80320089073
:100F400002208DF8240000208DF8260003208DF863
:100F5000250001208DF8270008A92D4801F03AFB53
:100F6000092200212A4801F07DFB0922012128489D
:100F700001F078FB00208DF81A0001208DF81B008D
:100F800000208DF81C008DF81D008DF81E008DF8D6
:100F90001F008DF816808DF817408DF818608DF8B9
:100FA0001950ADF8147005A91A4800F06EFA002027
:100FB0008DF80E008DF80F0001208DF81000002034
:100FC000ADF80400ADF80600ADF80800ADF80A0071
:100FD000ADF80C0001208DF8110001A800F038F9DF
:100FE000012202210B4800F047FA14208DF800007E
:100FF00004208DF8010000208DF8020001208DF8FA
:101000000300684601F04CFE00200AB0BDE8F08104
:10101000000C02400064004010B50221084800F0B6
:101020009BF958B10221064800F0BEF8054A00219C
:10103000034800F0B4FA034800F0BCFB10BD000008
:10104000006800406C0602202DE9F0418AB0044699
:101050000D4616461F46DDF840800121022001F0B2
:10106000B3FF0121880601F0BFFF0121880601F0CE
:10107000CBFF00214FF0806001F0C6FF4FF44050DD
:10108000089002208DF8240000208DF8260003200F
:101090008DF8250001208DF8270008A92D4801F0C2
:1010A00099FA09220C212B4801F0DCFA09220D21C2
:1010B000284801F0D7FA00208DF81A0001208DF899
:1010C0001B0000208DF81C008DF81D008DF81E00FF
:1010D0008DF81F008DF816808DF817408DF8186078
:1010E0008DF81950ADF8147005A91B4800F0CDF922
:1010F0000E208DF80E0000208DF80F0001208DF8D5
:1011000010000020ADF80400ADF80600ADF80800AE
:10111000ADF80A00ADF80C0001208DF8110001A80F
:1011200000F096F8012202210B4800F0A5F94020BA
:101130008DF8000004208DF8010000208DF80200D9
:1011400001208DF80300684601F0AAFD00200AB0D6
:10115000BDE8F08100040240006800402DE9F04144
:1011600004460D4616461F4640F2FF100C49086023
:1011700000200872487208208872200AC872084647
:101180000473290A41738573310AC1730674390ADD
:10119000417487740146034800F079FABDE8F08194
:1011A0004406022000640040B1F5007F3AD00FDC15
:1011B000202928D006DC01291CD004291DD00829AB
:1011C00040D11DE0402921D0B1F5807F3AD126E001
:1011D000B1F5004F31D006DCB1F5806F25D0B1F507
:1011E000006F2FD124E0B1F5803F12D0B1F5003F60
:1011F00028D111E0154A826025E00822C26022E071
:101200001022C2601FE0082202611CE0102202616D
:1012100019E00822426016E01022426013E0042226
:10122000426010E0042242600DE0042242600AE0C5
:10123000002282610422426005E0002282610422D1
:10124000426000E000BF00BF7047000001010100E4
:1012500010B50021837A012202FA03F13D4A126897
:1012600042F001023B4B1A603A4A1C3212688A4330
:10127000384B1C331A60027BCAB9364A0C321268EA
:101280008A43344B0C331A604288C38842EA0343D2
:10129000304A4032847A42F834300288838842EA05
:1012A00003432C4A4032847A02EBC4025360027B2F
:1012B000012A19D1274A0C3212680A43254B0C33F4
:1012C0001A604288038842EA0343224A4032847A01
:1012D00042F83430C288838842EA03431D4A4032D0
:1012E000847A02EBC4025360C27A3AB9194A121DD9
:1012F00012688A43174B1B1D1A6006E0154A121D1F
:1013000012680A43134B1B1D1A60028932B9114A35
:10131000143212688A430F4B14331A600289012A6F
:1013200006D10C4A143212680A430A4B14331A606D
:10133000427B012A06D1074A1C3212680A43054B38
:101340001C331A60034A126822F00102014B1A6032
:1013500010BD00000066004070B504460D46002632
:1013600060692840002871D0B5F5807F5CD010DC22
:10137000082D35D006DC012D20D0022D24D0042DDF
:1013800072D127E0102D31D0202D35D0402D6BD1DA
:1013900038E0B5F5004F60D009DCB5F5007F49D0E5
:1013A000B5F5806F4CD0B5F5006F5DD14FE0B5F568
:1013B000803F2DD0B5F5003F56D12FE0A0682D49D4
:1013C00000F0BAFA064651E0E068032100F0B4FAF2
:1013D00006464BE0E068082100F0AEFA064645E01C
:1013E000E068102100F0A8FA06463FE020690321DA
:1013F00000F0A2FA064639E02069082100F09CFAC4
:10140000064633E02069102100F096FA06462DE0EA
:101410006068082100F090FA064627E06068102115
:1014200000F08AFA064621E0A069012100F084FA62
:1014300006461BE0A069022100F07EFA064615E090
:10144000A069042100F078FA06460FE00FE0A069D9
:10145000702100F071FA064608E06068042100F08F
:101460006BFA064602E0FFE7002600BF00E0002618
:10147000304670BD010101001AB143690B4343615D
:1014800002E043698B434361704730B50246002058
:101490000023146824F002041460146844F001046A
:1014A000146000E05B1C546804F001041CB94FF6A2
:1014B000FF74A342F6D1546804F001040CB9002073
:1014C0006CE08C79012C04D1146844F08004146021
:1014D00003E0146824F080041460CC79012C04D15A
:1014E000146844F04004146003E0146824F04004DD
:1014F00014600C7A012C04D1146844F020041460A8
:1015000003E0146824F0200414604C7A012C04D108
:10151000146844F01004146003E0146824F010040C
:1015200014608C7A012C04D1146844F0080414600F
:1015300003E0146824F008041460CC7A012C04D170
:10154000146844F00404146003E0146824F00404F4
:1015500014608C78A407CD7844EA05640D7944EAD8
:1015600005444D7944EA05540D886D1E2C43D46121
:10157000146824F001041460002300E05B1C54682C
:1015800004F001041CB14FF6FF74A342F6D1546875
:1015900004F001040CB1002000E0012030BD10B5C2
:1015A00000F5D87303EB01131B6803F004031372F7
:1015B000137A53B900F5D87303EB01131B6840F29B
:1015C000FF7404EA5353136009E000F5D87303EB8A
:1015D00001131B686FF0604404EAD303536000F505
:1015E000D87303EB01131B6803F00203537200F579
:1015F000D87303EB01135B6803F00F03937200F5DC
:10160000D87303EB01135B681B0AD37400F5D8731E
:1016100003EB01139B68D37200F5D87303EB01133E
:101620009B681C0A147300F5D87303EB01139B68C5
:101630001C0C547300F5D87303EB01139B681B0E4D
:10164000937300F5D87303EB0113DB68D37300F5D4
:10165000D87303EB0113DB681C0A147400F5D8730C
:1016600003EB0113DB681C0C547400F5D87303EB17
:101670000113DB681B0E937421B9C36843F0200388
:10168000C36003E0036943F02003036110BD10B59C
:1016900002460020936803F08063B3F1806F00D1AD
:1016A00010E0936803F00063B3F1006F01D10120F3
:1016B00008E0936803F08053B3F1805F01D102200A
:1016C00000E00420042874D002F5C07303EB00137B
:1016D0001B6803F0010402F5C07303EB00131C60E8
:1016E0000B7A7BB94B7A0C8843EA445302F5C074F9
:1016F00004EB00142468234302F5C07404EB0014C7
:10170000236010E00B7A4C6843EAC4034C7A23430D
:1017100002F5C07404EB00142468234302F5C0747E
:1017200004EB001423608B7A03F00F038B7202F535
:10173000C07303EB00135B6823F00F0402F5C07362
:1017400003EB00135C6002F5C07303EB00135B68EE
:101750008C7A234302F5C07404EB001463608B7B26
:101760001C064B7B44EA03440B7B44EA0323CC7AFC
:10177000234302F5C07404EB0014A3608B7C1C06A9
:101780004B7C44EA03440B7C44EA0323CC7B234395
:1017900002F5C07404EB0014E36002F5C07303EBC0
:1017A00000131B6843F0010402F5C07303EB001340
:1017B0001C6010BD10B504462068A0F20120072867
:1017C0007ED2DFE800F06162636404234200554882
:1017D000008800B253490881207BE17A40EA012069
:1017E00050490880A17B607B41EA002000B24D494E
:1017F0008880217CE07B41EA002000B24949488092
:10180000607C8871012000F03FFA88E0464800883B
:1018100000B245490881207BE17A40EA0120424933
:101820000880A17B607B41EA002000B23E498880AD
:10183000217CE07B41EA002000B23B494880607C8B
:101840008871022000F020FA69E03848008800B270
:1018500036490881207BE17A40EA0120334908803B
:10186000A17B607B41EA002000B230494880217CA6
:10187000E07B41EA002000B22C498880607C8871BE
:10188000032000F001FA4AE000BF00BF00BF20784B
:10189000401E274908700846007800EB8000254963
:1018A00031F8100000B22249097801EB8101214A88
:1018B00002EB41010881207BE17A40EA012000E04F
:1018C0002CE01B49097801EB810122F81100A17B72
:1018D000607B41EA002000B21549097801EB8101E3
:1018E00002EB41014880217CE07B41EA002000B20C
:1018F0000F49097801EB810102EB41018880607C8E
:101900000B49097801EB810102EB4101887108491B
:101910000978091DC8B200F0B7F900E000BF00BFA8
:1019200010BD0000FC050220060602201006022061
:10193000F80000201A0602200246002002EA0103F5
:101940000BB1012000E000207047000010B51049E5
:10195000104800F029F9C8B10D490E4800F022F8EE
:1019600004F0E4FE07F0DCFB01280FD00A490B4825
:10197000006806F0D7FD0848006838B14FF0805085
:1019800007490860BFF34F8FBFF36F8F10BD000092
:101990000008002088640240BC01002040010020B3
:1019A00004ED00E00246094B9A4201D2084801E0EA
:1019B0000648103801F000531BB1064B0B40C360C2
:1019C00002E0044B0B40836070470000106402404B
:1019D000006002407D0F7D0F21B1026842F00102DC
:1019E000026003E0026822F001020260704700001A
:1019F000016821F001010160002101604160816006
:101A0000C1600161212141614A49884204D13D21DF
:101A1000484A103A91608CE046491831884205D115
:101A20004FF47461434A103A916082E04149303189
:101A3000884205D14FF474113E4A103A916078E023
:101A40003C494831884205D14FF07461394A103A17
:101A500091606EE037496031884204D13649354A99
:101A6000103AD16065E033497831884204D1334976
:101A7000304A103AD1605CE02E499031884204D15E
:101A80002F492C4A103AD16053E02A49A8318842A4
:101A900005D14FF03D51274A103AD16049E029491C
:101AA000884204D13D21274A083A116041E0254986
:101AB0001831884205D14FF47461224A083A116006
:101AC00037E020493031884205D14FF474111D4A66
:101AD000083A11602DE01B494831884205D14FF08A
:101AE0007461184A083A116023E01649603188424F
:101AF00004D11149134A121F11601AE011497831BB
:101B0000884204D10D490F4A121F116011E00D499E
:101B10009031884204D10A490A4A121F116008E034
:101B20000849A831884204D14FF03D51054A121F9F
:101B300011607047106002403D000020400F0020FF
:101B400000003D201064024021B1026842F480226E
:101B5000026003E0026822F480220260704722B132
:101B6000036843F40023036003E0036823F40023C5
:101B7000036001617047014600200A6802F001021B
:101B80000AB1012000E0002070470146486880B299
:101B90007047014600200A6802F400220AB10120C1
:101BA00000E000207047000030B503460A460020E0
:101BB00000240B4DAB4201D20A4901E0084910391B
:101BC00002F000550DB14C6800E00C68064D2C4049
:101BD00004EA02050DB1012000E0002030BD000044
:101BE00010640240006002407D0F7D0F10B501F0CF
:101BF00080034BB122B1436943F08003436103E0AA
:101C0000436923F08003436180290BD02AB1036824
:101C100001F01E042343036004E0036801F01E0486
:101C2000A343036010BD000010B500220268134BEF
:101C30001A40CC680B6823434C6923438C692343C7
:101C4000CC6923430C6A23434C6A23438C6A2343A5
:101C50004C6B23438C6B23431A430260426922F08E
:101C60000702D1E90B3423431A4342610B694360F5
:101C70004B6883608B68C36010BD00003F801CF020
:101C8000416070477047000010B5044604EBC40083
:101C9000454901EB8000006804EBC401424A02EBB5
:101CA0008101486007F04CFA04EBC4013E4A02EBA4
:101CB0008101086004EBC400114601EB8000C07C88
:101CC000C0F38010B0B104EBC40001EB8000C07C15
:101CD00020F0400004EBC40102EB8101C87404EB66
:101CE000C400114601EB8000006804EBC40102EB64
:101CF0008101C86004EBC4002B4901EB80008069BE
:101D000090B304EBC401284A02EB81018869804743
:101D100058B304EBC400244901EB8000C07C20F0E0
:101D20002000203004EBC4011F4A02EB8101C8747B
:101D300004EBC400114601EB8000C07C20F0800061
:101D4000803004EBC40102EB8101C87404EBC400D1
:101D5000114601EB8000006A28B304EBC40102EBDA
:101D60008101086A80471EE00FE0FFE704EBC40032
:101D70000D4901EB8000C07C20F0800004EBC40121
:101D8000094A02EB8101C8740DE004EBC400064966
:101D900001EB8000C07C20F0800004EBC401024A0B
:101DA00002EB8101C87410BD8006022010B54FF40B
:101DB000807000F011F840B14FF4807000F006F828
:101DC00004F0BCFC172001F057FB10BD014908606E
:101DD00070470000143C014001460020034A12688D
:101DE0000A400AB1012000E000207047143C014085
:101DF000002123498279002A3AD00A4612680368F2
:101E00009A430B461A600A1D126803689A430B1D19
:101E10001A60027911440A6803681A430A60184A72
:101E20000832126803689A43154B08331A601A1D6A
:101E3000126803689A43124B0C331A604279102AD5
:101E40000ED11A1F126803681A430D4B08331A602B
:101E50001A1D126803681A43094B0C331A600DE00F
:101E60000749427911440A6803681A430A6005E089
:101E7000027911440A6803689A430A6070470000B7
:101E8000003C014010B5044604B910BD94F8B800F8
:101E900020B904F10C0004F0D5F910E094F8B80072
:101EA000012804D104F10C0004F09EF907E094F835
:101EB000B800022803D104F10C0004F0D4F994F81E
:101EC000980120B904F1EC0004F0BCF910E094F89A
:101ED0009801012804D104F1EC0004F085F907E031
:101EE00094F89801022803D104F1EC0004F0BBF946
:101EF00000BFCAE710B52DED028B044614B9BDEC46
:101F0000028B10BD606890ED010A84ED6B0AB4F895
:101F10009A11D4F8EC20108804F0D4FB84ED690AFF
:101F2000A06890ED010A84ED6D0A606890ED000AEA
:101F300084ED330AB4F8BA10E268108804F0C2FBEA
:101F400084ED310AD4ED690AB0EE600AFEF720FA9A
:101F5000A068D0ED020A20EE208AD4ED690AB0EE26
:101F6000600AFEF751FAA068D0ED000A00EE608A20
:101F700084ED358A00BFC2E710B5044603F02CFC9F
:101F8000E06003F021FCC4F8EC0003F015FC606095
:101F900003F016FCA06003F09DFC2060002184F893
:101FA000B91084F8B81084F8991184F898119FED4D
:101FB000402ADFED401AB2EE041ADFED3E0AB2EE1F
:101FC000040A04F1100000F03DF99FED3A2ADFED1C
:101FD000391AB2EE001ADFED370AB2EE040A04F144
:101FE000400000F02FF9DFED340A9FED340A344A47
:101FF000002104F1700000F091FF9FED2E2ADFED2B
:102000002D1AB2EE0E1ADFED2B0AB2EE040A04F11D
:10201000F00000F017F99FED272ADFED261AB2EE47
:102020000E1ADFED240AB2EE040A04F5907000F0F7
:1020300009F9DFED210A9FED210A224A002104F56A
:10204000A87000F06BFF04F1100000F03BFB04F1FE
:10205000400000F037FB04F1700000F08FFF04F146
:10206000F00000F02FFB04F5907000F02BFB04F55E
:10207000A87000F083FF2046FFF73CFF94ED330A81
:1020800084ED340A94ED310A84ED320A94ED350A78
:1020900084ED360A94ED6B0A84ED6C0A94ED690ABE
:1020A00084ED6A0A94ED6D0A84ED6E0A10BD00009D
:1020B0009A99993E0000000000409C450060EA4665
:1020C000E89F0008DC9F000800B9704790F8B9103D
:1020D00069B190F8B81051B9B0F9E81000EE101AD3
:1020E000B8EEC00A80ED390A80ED380A18E090F8A1
:1020F000B910012908D090F8B810012904D190ED49
:10210000330A80ED340A0BE090F8B910022907D0A9
:1021100090F8B810022903D190ED310A80ED320A0F
:1021200090F8B82080F8B92090F8991169B190F82A
:10213000981151B9B0F9C81100EE101AB8EEC00AE2
:1021400080ED710A80ED700A18E090F8991101296C
:1021500008D090F89811012904D190ED6B0A80ED18
:102160006C0A0BE090F89911022907D090F89811A9
:10217000022903D190ED690A80ED6A0A90F898214E
:1021800080F8992100BFA0E710B52DED048B04461F
:10219000B0EE408AF0EE608AB0EE419A24B99FED2D
:1021A000260ABDEC048B10BD84ED048AC4ED038ABD
:1021B00078EEC89A9FED211ADFED210AB0EE690A88
:1021C00004F044FA84ED050A94ED000AD4ED050A02
:1021D00020EE200A84ED080A94ED090AD4ED010AE4
:1021E00094ED051A00EE810A84ED090A94ED020AC5
:1021F00020EE090A84ED0A0AD4ED070AB0EE600A5F
:1022000004F1240002F0E2FB94ED080AD4ED090A7F
:1022100030EE200AD4ED0A0A30EE200A84ED0B0AD3
:10222000D4ED060AB0EE600A04F12C0002F0CEFBF9
:1022300094ED0B0AB5E7000000000000DB0F4940F9
:10224000DB0F49C000B9704780ED001AC0ED011ADC
:1022500080ED022ADFED062AC0ED052ADFED042A13
:10226000C0ED042AC0ED070A80ED060A00BFEAE7C8
:10227000000000001CB5044604B91CBD9FED240AF3
:102280008DED010A9FED220A8DED000A2246694676
:1022900001A803F0EDFB94F8B80020B99DED010A08
:1022A00084ED380A14E094F8B800012806D19DEDB9
:1022B000010A04F10C0000F037F809E094F8B800C6
:1022C000022805D19DED010A04F10C0000F0A6F8EA
:1022D00094F8980120B99DED000A84ED700A14E08D
:1022E00094F89801012806D19DED000A04F1EC0054
:1022F00000F01AF809E094F89801022805D19DED44
:10230000000A04F1EC0000F089F800BFB5E7000016
:102310000000000010B5044604B910BD204603F0CB
:102320005FFC00BFF9E7000010B52DED028B0446FD
:10233000B0EE408A14B9BDEC028B10BDD4ED310A69
:1023400094ED301A70EEC10AB0EE600A9FED2F1ABC
:10235000DFED2F0A04F07AF92E4880ED000A94EDA3
:102360002E0AD0ED000A30EE200A30EE080AD4ED35
:102370002C0AB4EEE00AF1EE10FA11DDB5EEC08AD7
:10238000F1EE10FA2DDD94ED2C0AD4ED2E0A30EE8C
:10239000600AD0ED000A30EE600AB0EE408A20E01C
:1023A00094ED2E0A1B48D0ED000A30EE200A30EEE4
:1023B000080AD4ED2D0AB4EEE00AF1EE10FA10D2BC
:1023C000B5EEC08AF1EE10FA0BD294ED2D0AD4EDE1
:1023D0002E0A30EE600AD0ED000A30EE600AB0EE50
:1023E000408A94ED310A0C4880ED000AD0ED000AD5
:1023F00070EE880AB0EE600A9FED041ADFED040A61
:1024000004F024F984ED310A00BF94E7DB0F494062
:10241000DB0F49C0380100203C01002000B97047A3
:10242000D0ED2F0A70EE800AC0ED2F0AD0ED2F0AF2
:1024300090ED2C1AF4EEC10AF1EE10FA04DDD0EDA5
:102440002C0AC0ED2F0A0CE0D0ED2F0A90ED2D1ACA
:10245000F4EEC10AF1EE10FA03D2D0ED2D0AC0ED70
:102460002F0A00BFDBE70000C92005F0ADFF3248AE
:10247000FFF782FD05F09EFB05E0012005F0A4FFBB
:102480002D48FFF737FD012005F0B0FD0028F4D1FD
:10249000022005F0ABFD0028EFD1032005F0A6FDDA
:1024A0000028EAD147E02448FFF734FF2248FFF72D
:1024B0000BFE2148FFF71EFD1F48FFF7DBFE1E48FD
:1024C000FFF7E0FC05F06EFA1C4908801A48B0F8E6
:1024D000E8001B4908801848B0F8C801194908806D
:1024E000012005F083FD38B1022005F07FFD18B111
:1024F000032005F07BFDB0B9002005F077FD30B179
:1025000000231A4619461846FEF728FE0BE0002362
:102510000A48B0F900200B48B0F900100848B0F99B
:102520000000FEF71BFE012005F04EFF002005F025
:10253000F5FD05490860B6E7C40702203401002014
:1025400030010020320100202C01002000B585B0B0
:102550000121022000F038FD0121880300F064FD14
:102560000821012001F080F84FF4807000900020D5
:102570008DF8040001208DF8060000208DF807007A
:1025800003208DF805006946114800F023F84FF448
:102590008070029000208DF80C0008208DF80D004E
:1025A00001208DF80E0002A8FFF722FC17208DF8FD
:1025B000100005208DF8110000208DF81200012078
:1025C0008DF8130004A800F06BFB05B000BD0000FF
:1025D00000040240F0B50A4600210023002400BF99
:1025E0003DE0012505FA01F3156805EA03049C4264
:1025F00034D105684F000326BE40B5430560157908
:102600004E00B5400668354305601579012D02D0AE
:102610001579022D16D185684F000326BE40B543BB
:10262000856055794E00B5408668354385604568BC
:1026300001268E40B5434560456896798E40B6B216
:1026400035434560C5684F000326BE40B543C560AD
:10265000D5794E00B540C6683543C560491C102980
:10266000BFD3F0BDF0B5002300244D07ED0E02FAF4
:1026700005F3CE1000F1200555F826504E07F70E51
:102680000F26BE40B543CF1000F1200646F8275074
:10269000CE1000F1200555F8265045EA0304CE106F
:1026A00000F1200545F82640F0BD024600201369E0
:1026B0000B400BB1012000E00020704741837047C0
:1026C0000183704700B970479FED090A80ED040A45
:1026D00080ED030A80ED050A9FED050A80ED0A0AE8
:1026E00080ED090A80ED080A80ED0B0A00BFEAE7D9
:1026F0000000000000BFFEE7F0B50546059C002085
:102700007FE093ED050A00EB4006404F07EB86069D
:10271000D6ED000A20EE200AD3ED060A00EB4006B3
:1027200007EB860696ED011A00EE810AD3ED070A43
:1027300000EB400607EB860696ED021A00EE810AD2
:10274000334E06EB8006D6ED000A30EE200A05EB8C
:10275000800686ED000A93ED010A00EB40062D4F3E
:1027600007EB8606D6ED000A20EE200AD3ED020A1A
:1027700000EB400607EB860696ED011A00EE810A93
:10278000D3ED030A00EB400607EB860696ED021A2E
:1027900000EE810A204E06EB8006D6ED000A30EEF0
:1027A000200A01EB800686ED000A94ED010A00EB99
:1027B00040061A4F07EB8606D6ED000A20EE200AE7
:1027C000D4ED020A00EB400607EB860696ED011AEF
:1027D00000EE810AD4ED030A00EB400607EB860603
:1027E00096ED021A00EE810A0D4E06EB8006D6ED3C
:1027F000000A30EE200A02EB800686ED000A461C35
:10280000F0B20328FFF67DAFF0BD000048010020C4
:10281000F00902206C010020FC0902209001002038
:10282000180A022010B52DED028BB0EE408A274821
:10283000007838B303F048F800EE100AB8EEC00A8A
:10284000F0EE408AF0EE680AB0EE480A204800F048
:102850006DFA1F4890ED080AB5EEC00AF1EE10FAC5
:1028600003D29FED1C0A80ED080A194890ED080A72
:10287000BCEEC00A10EE100A84B22146164801F0E0
:1028800062FC20E003F020F800EE100AB8EEC00A67
:10289000B4EEC80AF1EE10FA10D210480078401CCD
:1028A0000E49087008460078C82807DD012007494E
:1028B00008709FED0B0A064880ED0A0A41F2873145
:1028C000054801F040FCBDEC028B10BDB4010020B6
:1028D000640A02200000000000040040B80100204B
:1028E00000401C4508B5072005F06EFD00BF03F051
:1028F0005BFF0028FBD100BF03F0ACFD0028FBD13B
:1029000004F098F8044606F0B9FBA4490860FFF704
:102910001DFE1722A249A34800F0E8FD012211463E
:10292000A14800F06BFE012202219F4800F066FEE4
:102930000021102000F088FD2EE100BF4FF0FF3194
:10294000012005F05FFB0128F8D198499448401C0C
:1029500003F098FF96499248103003F0C3FD944865
:10296000924B944A944900909448FFF7C5FE8F48D3
:10297000007800F00100002846D091480078E8BBBC
:10298000012141F2883001F023F9DFED8E0A9FED3D
:102990008E0A8E4A01218E4800F0C0FA854A864987
:1029A0008C48FEF755F88C4B1A1F111F894802F00E
:1029B00017FF814890ED000A884880ED000A88489A
:1029C00080ED000A874880ED000A7B4890ED010AFF
:1029D000824880ED010A824880ED010A814880ED3D
:1029E000010A754890ED020A7C4880ED020A7C4895
:1029F00080ED020A7B4880ED020A00E005E07048A5
:102A00000078401C6E490870BAE0754890ED000AE5
:102A1000744880ED000A714890ED000A704880ED1E
:102A2000000A90ED000A7048D0ED000A20EE200A5E
:102A30006C48D0ED000A6C4890ED011A00EE810A56
:102A40005D48D0ED000A684890ED021A00EE810A58
:102A5000624880ED000A624890ED010A614880ED0D
:102A6000010A5E4890ED010A5D4880ED010A90ED93
:102A7000010A5D48D0ED000A20EE200A5948D0ED49
:102A8000010A594890ED011A00EE810A4A48D0ED3A
:102A9000010A554890ED021A00EE810A4F4880ED78
:102AA000010A4F4890ED020A4E4880ED020A4B4859
:102AB00090ED020A4A4880ED020A90ED020A4A4867
:102AC000D0ED000A20EE200A4648D0ED020A464822
:102AD00090ED011A00EE810A3748D0ED020A424813
:102AE00090ED021A00EE810A3C4880ED020A314B5B
:102AF000024632499FED3D0A3648FEF721F9364B32
:102B00001A1F111F334802F06BFE39480088B8B90C
:102B1000384890ED000A384880ED000A354890EDBD
:102B2000010A354880ED010A324890ED020A324828
:102B300080ED020A2E480088401C2D4908801FE0C5
:102B40002B480088B0F5FA7F0CDA03F075FD2B48AE
:102B50000078A8B115480278254B1849264803F09B
:102B6000C7FB0DE022480088B0F5FA7F08D103F0DA
:102B700059FD02F003FA1E480088401C1C490880D9
:102B80000A48D0ED040AB0EE600AFFF74BFE0020C1
:102B900005F0C4FA1A490860CFE6000040010020A1
:102BA000AC090220F49F000800500140C409022033
:102BB000080A02203C0A0220300A0220240A0220CD
:102BC000B50100200080894500A08C450CA00008BC
:102BD000640A0220540A0220500A0220C40A022079
:102BE000B80A0220AC0A022018A000086F12833A2B
:102BF000B6010020E4090220F0090220B4010020FF
:102C00004401002070B506460C461546154800786C
:102C100038B3288888B9144890ED000A134880ED2D
:102C2000000A114890ED010A104880ED010A0E4893
:102C300090ED020A0D4880ED020A0D4802782B46FD
:102C40000C490A4803F054FB084890ED000A84ED53
:102C5000000A90ED010A84ED010A90ED020A84ED6C
:102C6000020A70BDB4010020E4090220F00902202C
:102C7000C4090220240A022091ED000A054A82EDCF
:102C8000000A91ED010A82ED010A91ED020A82ED3E
:102C9000020A7047E409022000BFFEE77047000007
:102CA00070B5002100230F22C4781CB3174C246890
:102CB00004F4E064C4F5E064C4F30721C1F1040442
:102CC000E3B20A4144789C40E1B284781440214345
:102CD0000C07210E0E4C05786155047804F01F0591
:102CE0000124AC4005786D11AD0005F1E025C5F873
:102CF000004109E0047804F01F050124AC40054DB3
:102D00000678761145F8264070BD00000CED00E015
:102D100000E400E080E100E002490143024A116062
:102D2000704700000000FA050CED00E0B0EE401A1C
:102D300010B99FED790A704790ED100A80ED110AE5
:102D400090ED0F0A80ED100AC0ED060A80ED071A1B
:102D500030EEC10A80ED0F0A0178002975D190ED9F
:102D6000010AD0ED0F1A20EE210A80ED090A90ED3C
:102D70000A0AD0ED021A90ED0F2A01EE820A80EDC8
:102D80000A0A90ED0D0A80ED0E0A90ED0C0A80ED16
:102D90000D0A90ED0F0AD0ED101A30EE610A80EDA9
:102DA0000C0A90ED030AD0ED0C1A20EE210A80EDFA
:102DB0000B0A90ED0A0AD0ED051AB4EEE10AF1EE25
:102DC00010FA04DD90ED050A80ED0A0A10E090ED9E
:102DD0000A0AD0ED051AF1EE611AB4EEE10AF1EE3D
:102DE00010FA05D290ED050AB1EE400A80ED0A0A0C
:102DF00090ED090AD0ED0A1A30EE210AD0ED0B1A37
:102E000030EE210A80ED080A90ED080AD0ED041A90
:102E1000B4EEE10AF1EE10FA04DD90ED040A80ED63
:102E2000080A76E090ED080AD0ED041AF1EE611A76
:102E3000B4EEE10AF1EE10FA6BD290ED040AB1EEB5
:102E4000400A80ED080A64E0FFE70178012960D1BB
:102E500090ED0F0AD0ED101A30EE610AD0ED011A94
:102E600020EE210A80ED090A90ED020AD0ED0F1A3A
:102E700020EE210A80ED0A0A90ED0D0A80ED0E0A7F
:102E800090ED0C0A80ED0D0A90ED0F0AD0ED101AAE
:102E9000B0EE002A02EE610AD0ED111A30EE210ADE
:102EA00080ED0C0A90ED030AD0ED0C1A20EE210AF9
:102EB00080ED0B0A90ED090AD0ED0A1A30EE210AD6
:102EC000D0ED0B1A30EE210AD0ED081A30EE210AAF
:102ED00080ED080A90ED080AD0ED041AB4EEE10A7C
:102EE000F1EE10FA04DD90ED040A80ED080A10E01E
:102EF00090ED080AD0ED041AF1EE611AB4EEE10A81
:102F0000F1EE10FA05D290ED040AB1EE400A80ED20
:102F1000080A90ED080A0EE70000000000B102B9AF
:102F20007047017092ED001A80ED011A92ED011ABE
:102F300080ED021A92ED021A80ED031A80ED040A68
:102F4000C0ED050A9FED0C1A80ED0E1A80ED0D1AEA
:102F500080ED0C1A9FED081A80ED081A80ED0B1A0F
:102F600080ED0A1A80ED091A80ED111A80ED101A11
:102F700080ED0F1A00BFD3E70000000000B97047D2
:102F80009FED100A80ED110A80ED100A80ED0F0A06
:102F90009FED0C0A80ED0E0A80ED0D0A80ED0C0A03
:102FA0009FED080A80ED0B0A80ED0A0A80ED090A00
:102FB00080ED080A9FED030A80ED060A80ED070AFE
:102FC00000BFDCE70000000029B1064A1268024396
:102FD000044B1A6004E0034A12688243014B1A60F2
:102FE000704700003038024029B1064A1268024397
:102FF000044B1A6004E0034A12688243014B1A60D2
:10300000704700004038024029B1064A1268024366
:10301000044B1A6004E0034A12688243014B1A60B1
:10302000704700002038024029B1064A1268024366
:10303000044B1A6004E0034A12688243014B1A6091
:10304000704700004438024029B1064A1268024322
:10305000044B1A6004E0034A12688243014B1A6071
:103060007047000024380240F0B5002100220024FF
:10307000022500260223324F3F6807F00C0121B1E0
:10308000042905D0082937D105E02E4F076036E026
:103090002D4F076033E02A4F3F1F3F68C7F380562C
:1030A000274F3F1F3F6807F03F036EB1264FB7FB26
:1030B000F3F7DFF88CC0ACF1040CDCF800C0CCF303
:1030C000881C07FB0CF40CE01E4FB7FBF3F7DFF88E
:1030D00070C0ACF1040CDCF800C0CCF3881C07FB1A
:1030E0000CF4174F3F1F3F68C7F301477F1C7D005B
:1030F000B4FBF5F7076002E0124F076000BF00BFA6
:103100000F4F3F6807F0F0010909104F7A5C07681C
:10311000D74047600A4F3F6807F4E051890A0B4FD8
:103120007A5C4768D7408760054F3F6807F4604185
:10313000490B064F7A5C4768D740C760F0BD000076
:10314000083802400024F400001BB70014000020DF
:1031500070B590B004460E46154601214A48FFF767
:1031600033FF01211020FFF75FFF01211020FFF73F
:103170006BFF00211020FFF767FF0722114643482D
:10318000FFF770FA80200E9002208DF83C0000209E
:103190008DF83E0003208DF83D0000208DF83F00A3
:1031A0000EA93A48FFF716FA394801F0A9F839484C
:1031B0000A900020ADF82C00ADF82E004FF480608E
:1031C000ADF830000420ADF832000020ADF8340036
:1031D0000AA92F4801F05CF9012240212C4801F096
:1031E00086F810212A4801F06DF8012240F22441AE
:1031F000274801F027F90121254801F06CF8252026
:103200008DF83C0004208DF83D0000208DF83E0034
:1032100001208DF83F000FA8FFF742FD1E48FEF782
:10322000E7FB4FF0006001901948001D02900394E5
:1032300000200490059506904FF4806007900020D0
:10324000089009904FF480700A904FF440300B9032
:1032500000200C900D900E900F9001A90E48FEF7E3
:10326000E3FC002231460C48FEF779FC01210A48B4
:10327000FEF76AFC00210848FEF7AEFB0121064874
:10328000FEF7AAFB10B070BD02004000000402402F
:1032900000100140A08601004064024010B50021EA
:1032A000014801F018F810BD0010014000B101B94B
:1032B00070470278437842EA0322C2F30A020A8086
:1032C0004278D210837842EA4312C2F30A024A805B
:1032D00082789211C37842EA8302037942EA832218
:1032E000C2F30A028A8002795210437942EAC31279
:1032F000C2F30A02CA804279C2F301128A72427989
:1033000012119308CB728279C37942EA032212B276
:103310008A81027A437A42EA032213B201F10C0253
:10332000CB81827AC37A42EA032213B201F10C0202
:103330000B82037B8B74437BCB74827BC37B42EA1F
:1033400003228A82027C437C42EA032212B20A816F
:103350000A88A2F5806212B20A804A88A2F58062C9
:1033600012B24A808A88A2F5806212B28A80CA8824
:10337000A2F5806212B2CA800A89A2F5806212B2F6
:103380000A8100BF94E7000000B587B0012120202A
:10339000FFF71AFE01210805FFF746FE4FF46070A3
:1033A000059002208DF8180000208DF81A000120E9
:1033B0008DF81B0003208DF8190005A92048FFF7A0
:1033C00009F9052207211E48FFF74CF905220821BB
:1033D0001B48FFF747F9052209211948FFF742F971
:1033E00001210805FFF730FE00214FF48010FFF7A0
:1033F0002BFE0020ADF800004FF48270ADF8020003
:103400000020ADF804000220ADF806000120ADF860
:1034100008004002ADF80A003820ADF80C0000208A
:10342000ADF80E000720ADF810006946054800F021
:10343000FCF80121034800F0D5F807B000BD0000FA
:1034400000140240005001400A4A12884FF2C7732C
:103450001A40084B1A801A46128802431A801A46EC
:1034600012880A431A801A46128842F040021A80D3
:10347000704700000050014010B504460021184874
:10348000FEF7AAFA002116481830FEF7A5FA00BF89
:103490001348FEF770FB0028FAD100BF104818301F
:1034A000FEF769FB0028F9D10E490D481830FEF7E8
:1034B00079FA0D490A48FEF775FA21460848FEF7E1
:1034C000DFFB214606481830FEF7DAFB01210448ED
:1034D0001830FEF781FA01210148FEF77DFA10BD90
:1034E00070640240000C00203000002070B590B0E5
:1034F00005460E46144601218805FFF765FD442068
:103500008DF83C0005208DF83D0000208DF83E0030
:1035100001208DF83F000FA8FFF7C2FB2F48FEF7F0
:1035200067FA00BF2D48FEF726FB0028FAD14FF0BE
:10353000606000902A480190029600200390049455
:1035400005904FF480600690002007900890099045
:103550004FF440300A9000200B900C900D900E908C
:1035600069461E48FEF760FB012210211B48FEF74A
:103570003DFB00211948FEF72FFA18481838FEF7CE
:1035800037FA00BF15481838FEF7F5FA0028F9D1C8
:103590004FF0806000901248019002954020039007
:1035A0000494002005904FF480600690002007905E
:1035B000089009904FF480300A9000200B900C90F6
:1035C0000D900E90694605481838FEF72DFB002136
:1035D00002481838FEF700FA10B070BD8864024047
:1035E0000C50014021B1028842F04002028004E008
:1035F00002884FF6BF731A40028070471AB1838861
:103600000B43838002E083888B43838070470246AC
:10361000002013890B400BB1012000E0002070470F
:103620000146888970478181704710B50022028861
:1036300002F441520B884C8823438C882343CC8866
:1036400023430C8923434C8923438C892343CC890E
:1036500023431A430280838B4FF2FF7423408383FA
:103660000B8A038210BD000030B500228B071C0FAF
:103670000F2303FA04F20B4B8C1053F824309343BE
:10368000084C8D1044F8253023468C1053F8243014
:103690008C07240F00FA04F42343024C8D1044F8E5
:1036A000253030BD083801400CB500200190009055
:1036B0004148006840F480303F49086000BF3E4800
:1036C000006800F4003000900198401C01900098C0
:1036D00018B90198B0F5A04FF1D13748006800F44F
:1036E000003010B10120009001E00020009000980F
:1036F000012860D130484030006840F080502E49A9
:10370000403108602D48006840F440402B49086073
:1037100029480830006828490831086008460068D0
:1037200040F4004008600846006840F4A05008607B
:103730002348091F0860081F006840F08070091FB7
:10374000086000BF1C48006800F000700028F9D035
:103750001A48006840F480301849086000BF1748D4
:10376000406800F480300028F9D01448006840F424
:1037700000301249086000BF1048406800F4003073
:103780000028F9D040F205700E4908600A48083058
:10379000006820F003000849083108600846006806
:1037A00040F00200086000BF03480830006800F0E5
:1037B0000C000828F8D10CBD003802400070004011
:1037C000062D4008003C024010B5724890ED000AFA
:1037D000714880ED000A714890ED000A6D4880ED57
:1037E000000A6F4890ED000A6A48D0ED000A20EE0A
:1037F000200A6B48D0ED010A674890ED001A01EEEF
:10380000200A6848806AB0F9020000EE900AF8EEDB
:10381000E00A9FED651A60EE810A614890ED021A98
:1038200000EE810A5D4880ED000A90ED000A5D48D7
:1038300080ED0B0A806A00885A49896AB1F908103C
:10384000401AB0F5805F08DD564890F83E00401EF3
:1038500040B2544981F83E0012E05248806A008824
:103860005049896AB1F90810401A10F5805F07DAEB
:103870004C4890F83E00401C40B24A4981F83E0056
:10388000484890F83E00122804D1EF20454981F8BD
:103890003E0008E0434890F93E00123018B911206C
:1038A000404981F83E003F4890F93E00C0EB40306F
:1038B0003C49896A0988084400EE100AB8EEC00A3B
:1038C000DFED3A0A20EE200A364880ED0D0A4FF46B
:1038D00080613748FEF7E9FE324981F85400084616
:1038E00090F83F0081F84100084690F8400081F8C8
:1038F000420030480068807C81F83F002D48006815
:10390000C07C81F84000084690F83F0060B108464E
:10391000B0F84400B0F5C87F0ADA0846B0F84400B1
:10392000401CA1F8440003E000201E49A1F8440017
:103930001C4890F8400068B11A48B0F84600B0F54D
:10394000C87F0BDA1748B0F84600401C1549A1F8AB
:10395000460003E000201349A1F84600164800780D
:1039600090B114480068C07A02280DD10D48B0F813
:103970004800B0F5FA6F0BDA0A48B0F84800401C6E
:103980000849A1F8480003E000200649A1F84800D2
:1039900010BD0000D8010020D4010020DC0100206F
:1039A00030A00008780B0220F1A23E3BC2B8B2372B
:1039B00000140240C4010020C801002010B54C488A
:1039C0000068C07A01280AD14A480078012806D048
:1039D0004948007818B901204749087014E0444864
:1039E0000068C07A012806D142480078012802D038
:1039F0004148007828B93E480068007D00F080000A
:103A000010B100203C49087039480068C07A03288A
:103A10000CD137480068007D00F0400030B13648D6
:103A2000007818B901203449087011E03048006866
:103A3000C07A03280CD12E480068007D00F0800079
:103A400030B12D480078012802D100202A490870A1
:103A500002F046FB10B10020274908702648007884
:103A600001283ED122480068C07A022803D12148AB
:103A7000007802280FD1214890F83F0018B11F4864
:103A800090F8410038B11D4890F8400060B11B48E3
:103A900090F8420040B90220174908701748B0F862
:103AA0005A001649A1F85C001448B0F84400B0F57B
:103AB000C87F0BD01148B0F84600B0F5C87F05D0DC
:103AC0000E48B0F84800B0F5FA6F0AD10A480078FD
:103AD000032806D0094890F8540010B9022006497E
:103AE000087003480068C07A40B20249087010BDEF
:103AF000C4010020D0010020C8010020780B022062
:103B0000042808D14FF0E021096941F004014FF089
:103B1000E022116107E04FF0E021096921F0040182
:103B20004FF0E0221161704710B505F0F9FA012855
:103B300001D004F051FF10BD10B51548006840F4E5
:103B40007000134908601348006840F001001149F3
:103B5000086000200F49083108600E4800680E49CF
:103B600008400C4908600D48091D0860081F0068DE
:103B700020F48020091F0860002006490C310860ED
:103B8000FFF792FD4FF0006001498039086010BDD9
:103B900088ED00E000380240FFFFF6FE1030002400
:103BA00010B50121084800F0C1F960B101210648B3
:103BB00000F0D6F8054802684068521C40F1000049
:103BC00002490A60486010BD000400400001002066
:103BD00030B58BB005460C4601210220FFF704FAF0
:103BE00001210220FFF7F0F9022205212D48FEF7FE
:103BF00039FD01210220FFF707FA00210220FFF71B
:103C000003FA1D208DF8140005208DF81500002002
:103C10008DF8160001208DF8170005A8FFF740F871
:103C2000681E0990601E80B2ADF820000020ADF83B
:103C30002200ADF82800012211461B4800F087F948
:103C400008A9194800F084FA2020069002208DF877
:103C50001C0003208DF81D0000208DF81E0002209E
:103C60008DF81F0006A90F48FEF7B4FC6020ADF8E0
:103C700000000120ADF802000020ADF80C006946FC
:103C8000094800F0B5F90821074800F003FA0121BE
:103C9000054800F059F80121034800F064F80BB022
:103CA00030BD0000000402400004004010B50121B6
:103CB000064800F03BF938B10121044800F050F803
:103CC0000021024800F04FF810BD00000010004035
:103CD0007FB505460C4601211020FFF785F901212B
:103CE0001020FFF791F900211020FFF78DF91548FA
:103CF00000F054F8681E0290601E80B2ADF8040017
:103D00000020ADF80600ADF80C0001A90D4800F048
:103D10001FFA012211460B4800F019F936208DF8E0
:103D2000000004208DF8010000208DF80200012021
:103D30008DF803006846FEF7B3FF0121014800F04B
:103D400012F87FBD0010004021B1028842F08002CD
:103D5000028004E002884FF67F731A4002807047A9
:103D6000CA430282704721B1028842F001020280F8
:103D700004E002884FF6FE731A400280704731B1AA
:103D8000B0F8442042F40042A0F8442005E0B0F826
:103D90004420C2F30E02A0F84420704710B5044638
:103DA0005548844208D101210846FFF74DF900210A
:103DB0000120FFF749F99DE0B4F1804F08D10121BE
:103DC0000846FFF721F900210120FFF71DF991E0D6
:103DD0004A48844208D101210220FFF715F9002149
:103DE0000220FFF711F985E04548844208D10121FE
:103DF0000420FFF709F900210420FFF705F979E015
:103E00004048844208D101210820FFF7FDF8002135
:103E10000820FFF7F9F86DE03B48844208D1012102
:103E20001020FFF7F1F800211020FFF7EDF861E016
:103E30003648844208D101212020FFF7E5F800210F
:103E40002020FFF7E1F855E03148844208D10121F4
:103E50000220FFF7F9F800210220FFF7F5F849E00A
:103E60002C48844209D101210804FFF7EDF8002114
:103E70004FF48030FFF7E8F83CE02748844209D14E
:103E800001214804FFF7E0F800214FF40030FFF76C
:103E9000DBF82FE02148844209D101218804FFF793
:103EA000D3F800214FF48020FFF7CEF822E01C4821
:103EB000844208D101214020FFF7A6F800214020CC
:103EC000FFF7A2F816E01748844208D101218020AC
:103ED000FFF79AF800218020FFF796F80AE01248D1
:103EE000844207D101218015FFF78EF80021A0152B
:103EF000FFF78AF810BD00000000014000040040F8
:103F000000080040000C0040001000400014004079
:103F100000040140004001400044014000480140CD
:103F200000180040001C00400020004030B5024650
:103F3000002000230024158A05EA0103958905EA7B
:103F4000010413B10CB1012000E0002030BD1AB112
:103F500083890B43838102E083898B43838170478C
:103F600070B5002400220023058C4FF6FE76354004
:103F70000584028C8388048B4FF68F752C40B51E08
:103F80002C400D882C43751E2A408D892A434D886C
:103F90002A43104DA84202D00F4DA84213D14FF62C
:103FA000F7752A40CD892A434FF6FB752A408D8844
:103FB0002A434FF6FF652B404FF6FF552B400D8AE5
:103FC0002B434D8A2B43838004838D684563028491
:103FD00070BD000000000140000401400A460021BD
:103FE000018B4FF6F77319401143018370470000AE
:103FF00070B5002400220023058C4FF6EF76354083
:104000000584028C8388048B48F6FF752C404FF69C
:10401000FF452C400D884FF6FF7606EA05252C4318
:104020004FF6DF752A408D8906EA05152A434D882B
:1040300006EA05152A43154DA84202D0144DA842A0
:104040001DD14FF67F752A40CD894FF6FF7606EADF
:1040500005152A434FF6BF752A408D8806EA0515D7
:104060002A434FF6FF352B404FF2FF752B400D8A48
:1040700006EA85052B434D8A06EA85052B43838096
:1040800004838D688563028470BD000000000140D8
:10409000000401400A460021018B4FF2FF731940D2
:1040A0004FF6FF7303EA02231943018370470000B0
:1040B00070B5002200230024058C4EF6FF763540B3
:1040C0000584038C8488828B48F6FF752A404FF65E
:1040D000FF452A400D884FF6FF7606EA05252A435C
:1040E0004DF6FF752B408D8906EA05352B434D882B
:1040F00006EA05352B430A4DA84202D0094DA842D5
:1041000008D14BF6FF752C400D8A4FF6FF7606EA74
:1041100085152C43848082838D680564038470BD7B
:1041200000000140000401400A460021818B4FF24B
:10413000FF7319404FF6FF7303EA0223194381838B
:1041400070474163704781637047016470470000A6
:1041500000220288184B98420ED0184B98420BD080
:10416000B0F1804F08D0164B984205D0154B9842BD
:1041700002D0154B984204D14FF68F731A404B88EA
:104180001A43124B984207D0114B984204D04FF675
:10419000FF431A400B891A4302804B68C3620B88A5
:1041A0000385054B984202D0044B984201D18B7A8B
:1041B0000386012383827047000001400004014010
:1041C0000004004000080040000C004000100040C7
:1041D0000014004010B540F22551344800F008F9B1
:1041E00018B1324800F0BEF95FE040F224412F4898
:1041F00000F0FEF8002858D02C4800F0B3F92C4805
:10420000FDF7C7FC40BB00212948FDF7E5FB284826
:10421000FDF7BBFCC0F12400264908802421244876
:10422000FDF72EFD2248006840F400202049086078
:1042300021491F48FDF7B6FB01211D48FDF7CCFBC6
:104240001C480088122830D11C491D48FFF72EF861
:104250000020FDF719FD28E000211548FDF7BCFB03
:104260001348FDF792FCC0F1240012490880242174
:104270000F48FDF705FD0E48006820F400200C49AA
:1042800008600D490A48FDF78DFB01210848FDF73C
:10429000A3FB08480088122807D1084908482430A1
:1042A000FFF704F80020FDF7EFFC10BD00100140FF
:1042B00040640240C001002000003010D00A0220FB
:1042C000E60A022001F40072B2F5007F00D100BFBF
:1042D000CA430280704721B1828942F40052828130
:1042E00004E082894DF6FF731A40828170471AB14B
:1042F000838A0B43838202E0838A8B4383827047E5
:1043000010B504463248844208D101211020FEF73E
:104310009BFE00211020FEF797FE57E02D488442B7
:1043200009D101214804FEF76FFE00214FF400304F
:10433000FEF76AFE4AE02848844209D10121880438
:10434000FEF762FE00214FF48020FEF75DFE3DE0A7
:104350002248844209D10121C804FEF755FE0021FC
:104360004FF40020FEF750FE30E01D48844209D192
:1043700001210805FEF748FE00214FF48010FEF7EA
:1043800043FE23E01748844208D101212020FEF794
:104390005BFE00212020FEF757FE17E01248844202
:1043A00009D101218807FEF72FFE00214FF0804040
:1043B000FEF72AFE0AE00D48844207D1012140059C
:1043C000FEF722FE00216005FEF71EFE10BD000074
:1043D000001001400044004000480040004C0040F4
:1043E000005000400014014000780040007C004074
:1043F00070B50246002400230025002040F66A160E
:10440000B14200D100BFC1F3421501F01F030126E4
:1044100006FA03F3012D02D19689334006E0022DFE
:1044200002D1168A334001E0968A33400C120126ED
:1044300006FA04F41688344013B10CB1012000E0F0
:10444000002070BDF0B503460024002600250020A2
:1044500040F66A17B94200D100BF1846C1F34214B2
:1044600001F01F06012707FA06F5012C01D10C30D7
:1044700004E0022C01D1103000E014301AB10768BA
:104480002F43076002E00768AF430760F0BD0000FC
:104490002DE9FF4705460E460024A14600BFA04671
:1044A000B08900B100BF2C8A24F44054F088044342
:1044B0002C82AC8941F20C608443B0883189084376
:1044C000718908430443AC81AC8A24F44074B089F8
:1044D0000443AC826846FEF7C7FD2048854202D0FF
:1044E0001F48854202D1DDF80C9001E0DDF808900C
:1044F000A88900F4004040B109EBC90000EB0910A5
:1045000031684900B0FBF1F707E009EBC90000EBA7
:10451000091031688900B0FBF1F76420B7FBF0F0B7
:1045200004012009642101FB1078A88900F40040EF
:1045300040B1322000EBC800B0FBF1F000F0070002
:10454000044308E0322000EB08106421B0FBF1F0D6
:1045500000F00F0004432C81BDE8FF8700100140EC
:104560000014014001468888C0F30800704700BF6E
:10457000FEE7000001F020F904462DE094ED000A6A
:10458000DFED160A20EE200A154880ED000A94EDB2
:10459000010ADFED120A20EE200A80ED010A94EDF7
:1045A000020ADFED0E0A20EE200A80ED020A082042
:1045B00003F01CFD08B902F02BF84FF4FA7003F079
:1045C00003FF02F01BF84FF4FA7003F0FDFE002029
:1045D00003F0A4FD03490860D0E7000033336542CF
:1045E000D80B0220FC0100204100080218BF042063
:1045F0000A0E18BF40F001004FF07F4232EA01017D
:1046000008BF40F00200012808BF052070470000E5
:1046100010B54FF00E402DED028BB0EE408A18EE33
:10462000104A00EB4400B0F1506F4AD84FF0FC4004
:10463000B0EB440F22D2B0EEC80AF7EE000A30EE1B
:10464000C00AF6EE000A60EE208A18EE900A03F027
:104650000DFC01EE100A14F0004F1DBFDFED2D0A16
:104660009FED2D0AB1EE411ADFED2C0A08BF9FED38
:104670002C0AF8EE001A21EE218A05E0DFED290A66
:1046800068EE088AB0EE600A9FED271ADFED271A60
:1046900030EE080A48EE811A9FED251A08EEA11A9D
:1046A000DFED241A48EE811A9FED231A08EEA11AB5
:1046B00068EE281ABDEC028B01EE810A30EE200A6A
:1046C00010BD4FF0E440B0EB440F0CD918EE100AC7
:1046D000FFF78AFF042808BF00F070F9B0EE480A1F
:1046E000BDEC028B10BD4FF07F40B0EB440F07D202
:1046F000B0EE480ABDEC028BBDE8104000F050B9A6
:104700000120FBF788FFBDEC028BBDE8104000F0F4
:104710004DB900000000C9BF22AAFDB90000C93F81
:1047200022AAFD390000000024FE1C3DC78AD83CA7
:104730001E67383D1B93993DAFAA2A3E10EE100A22
:1047400010B510EE901A4FF0684202EB40032DEDC9
:10475000028BB3F1654F3CBF02EB4102B2F1654FF2
:104760007CD200BFC0F3C753C1F3C7529A1A1B2AA9
:1047700009DD10F0004F14BF9FED6E0A9FED6E0A29
:10478000BDEC028B10BD12F11A0F1BDA11F0004FB5
:1047900009D010F0004F0CBF9FED680A9FED680A2A
:1047A000BDEC028B10BD80EE208A18EE100AFFF7D8
:1047B0001BFF042808BF00F001F9B0EE480ABDEC69
:1047C000028B10BD4200B2EB410F37D910F0004F01
:1047D00019BFDFED5C1A9FED5C1ADFED5C1A9FEDEF
:1047E0005C1AB0EE602A0A46F1EE400A80F0004101
:1047F000B0EE420A10460A1A5200B2F1807F34D25B
:10480000484010F0004FDFED532A9FED533A1DBF93
:10481000BEEE002A71EEE21A31EE431AB6EE002A1D
:1048200004BF71EEA21A31EE031AF0EE402A42EEF6
:10483000602A40EE020A82EEA02A18E011F0004F32
:1048400004BF9FED461AF0EE411AD4D010F0004F8D
:104850001CBFDFED431A9FED431A00E026E004BFC2
:10486000DFED411A9FED411AC5E780EE202A22EEC6
:10487000020ADFED3F0ADFED3F2ABDEC028B40EE7E
:10488000202ADFED3D0A40EE220ADFED3C2A40EE11
:10489000202ADFED3B0A40EE220A22EE000A00EE5B
:1048A000201A31EE020A30EE210A10BD4FF07F428D
:1048B000B2EB400F28BFB2EB410F05D2BDEC028B2B
:1048C000BDE8104000F06FB840EA01035B0008BF8C
:1048D00041F0FF410BD0B2EB400F08BFB2EB410FEC
:1048E00008D120F0804000EE100A21F0804100EE57
:1048F000901A37E7B2EB400F12BF5FEA410240F077
:10490000FF4001F000413FF42DAF4A0092EA40031E
:104910003FF528AF002AACBF9FED1A1A9FED1A1A77
:1049200020EE010A60EE810A10EE100A10EE901AD5
:1049300018E70000DB0FC9BFDB0FC93FDB0F4940A1
:10494000DB0F49C00000C9BF22AAFDB90000C93F62
:1049500022AAFD390060ED3EC30ACE3700000000F8
:10496000000049C022AA7DBA0000494022AA7D3A2F
:104970002DAD65BD8FB8D53D0FB511BE61C84C3E9C
:10498000A8AAAABE0000804F0000802F2DED020BC8
:10499000019820F0004001909DED000B02B070479F
:1049A00030EE000A704730EE200A7047DFED020A51
:1049B00080EEA00A70470000000000009FED020A90
:1049C00020EE000A7047000000000010D0ED000A41
:1049D000F4EEC00AF1EE10FA02DD80ED000A0CE000
:1049E000D0ED000AB1EE401AF4EEC10AF1EE10FA71
:1049F00003D2F1EE400AC0ED000A704770B52DED0C
:104A0000028B8AB005460C4616460DB104B11EB99C
:104A10000AB0BDEC028B70BD94ED000AB5EEC00A81
:104A2000F1EE10FA0DD194ED010AB5EEC00AF1EEE7
:104A300010FA06D194ED020AB5EEC00AF1EE10FAB2
:104A40007DD09FED600AB0EE408A0020079008906C
:104A500009900490059006905B4A07CA01AB07C312
:104A600095ED010AD5ED030A20EE200AD5ED000AE6
:104A700095ED021A00EEC10AF0EE000A20EE200ABF
:104A80008DED070A95ED000AD5ED010A20EE200A0A
:104A9000D5ED020A95ED031A00EE810AF0EE000A48
:104AA00020EE200A8DED080A95ED000A20EE000A9E
:104AB000D5ED030A95ED031A00EE810AF7EE000A20
:104AC000B0EE001A51EE000ACDED090A01AB224604
:104AD0003146284600F07AF8D4ED000A60EEA00ACC
:104AE00094ED011AD4ED011A41EE210A94ED021A57
:104AF000D4ED021A41EE210AB0EE600AFCF7F6F896
:104B0000B0EE408A94ED000A20EE080A84ED000A17
:104B100094ED010A20EE080A84ED010A94ED020AE0
:104B200020EE080A84ED020A94ED010ADDED090A7F
:104B300020EE200AD4ED020A9DED081A00E03EE0C6
:104B400000EEC10A8DED040A94ED020ADDED070ABC
:104B500020EE200AD4ED000A9DED091A00EEC10AEC
:104B60008DED050A94ED000ADDED080A20EE200A1D
:104B7000D4ED010A9DED071A00EEC10A8DED060A7B
:104B800096ED000ADDED010A9DED041A00EE810AA2
:104B900086ED000A96ED010ADDED020A9DED051A8B
:104BA00000EE810A86ED010A96ED020ADDED030AA8
:104BB0009DED061A00EE810A86ED020A00BF00BFD5
:104BC00026E70000000000003CA000082DE9F041AD
:104BD0002DED048B07460D4614461E469FED580AE0
:104BE000B0EE409A9FED560AB0EE408A9FED540A0F
:104BF000F0EE408AD4ED000A60EEA00A94ED011AAE
:104C0000D4ED011A41EE210A94ED021AD4ED021AF4
:104C100041EE210AB0EE600AFCF768F8F7EE000AF0
:104C200080EE801AB0EE419AD5ED000AB0EE600A2F
:104C3000FBF7F0FEF0EE409AD5ED010AB0EE600A07
:104C4000FBF7E8FE79EE809AD5ED020AB0EE600A35
:104C5000FBF7E0FE39EE800AF0EE408A3948D0EDED
:104C6000000A79EE600AB0EE600AFBF7D3FEB0EE00
:104C7000408A9FED350AB4EEC08AF1EE10FA06DCE8
:104C80009FED320AF4EEC08AF1EE10FA53DD9FED8B
:104C90002C2AB0EE420A9FED2A2AF0EE421AB7EE15
:104CA000002AF0EE420A9FED262AB0EE421AB5EE37
:104CB000C08AF1EE10FA05DD9FED232AC2EE082A24
:104CC000B0EE620A9FED222AB4EEC20AF1EE10FAAB
:104CD00003D29FED1B2AB0EE420AF5EEC08AF1EE38
:104CE00010FA05DD9FED192AC2EE282AF0EE621AAD
:104CF000B7EE002AB4EEC20AF1EE10FA03D220EEAB
:104D0000802AF0EE420AB7EE002AF4EEC21AF1EE63
:104D100010FA03D220EEA12AF0EE420A9FED0D2AEE
:104D200020EE822AB0EE421A86ED001A86ED011AB4
:104D300086ED021A00BFBDEC048BBDE8F0810000D7
:104D4000000000000C020020CDCCCC3D8FC2F53D10
:104D50009A99993ECDCC4C3E10B52DED048B86B082
:104D60000446B0EE408AF0EE608AB0EE419A002030
:104D7000039004900590009001900290B0EE000A1C
:104D8000C8EE000AF0EE609AB0EE690AFBF736FE54
:104D90008DED030AB0EE000AC8EE800AF0EE609ACC
:104DA000B0EE690AFBF72AFE8DED040AB0EE000AA8
:104DB000C9EE000AF0EE609AB0EE690AFBF71EFE3B
:104DC0008DED050AB0EE000AC8EE000AF0EE609A1A
:104DD000B0EE690AFBF7A8FF8DED000AB0EE000AFD
:104DE000C8EE800AF0EE609AB0EE690AFBF79CFF0D
:104DF0008DED010AB0EE000AC9EE000AF0EE609AED
:104E0000B0EE690AFBF790FF8DED020A9DED050AF1
:104E1000DDED040A20EE200ADDED030A20EE200A73
:104E2000DDED020A9DED011A60EE810A9DED001A8A
:104E300000EE810A84ED000A9DED020ADDED040A10
:104E400020EE200ADDED030A20EE200ADDED050A42
:104E50009DED011A60EE810A9DED001A00EEC10A77
:104E600084ED010A9DED050ADDED010A20EE200A20
:104E7000DDED030A20EE200ADDED020A9DED041AA5
:104E800060EE810A9DED001A00EE810A84ED020AAF
:104E90009DED050ADDED040A20EE200ADDED000A95
:104EA00020EE200ADDED020A9DED011A60EE810A76
:104EB0009DED031A00EEC10A84ED030A06B0BDECB5
:104EC000048B10BD30B58BB005460C460121402047
:104ED000FEF78AF801218020FEF776F801214020B4
:104EE000FEF792F800214020FEF78EF809220621F5
:104EF0002048FDF7B7FB4020099002208DF82800DC
:104F000003208DF8290000208DF82A0002208DF85A
:104F10002B0009A91748FDF75DFB6020ADF80400E0
:104F20000120ADF806000020ADF8100001A91248DC
:104F3000FFF716F808211048FFF750F801210E4836
:104F4000FEF702FF681E0790601E80B2ADF81800E1
:104F50000020ADF81A00ADF8200006A90648FFF7BA
:104F6000F7F801210448FEF7FEFE00F007F80BB049
:104F700030BD0000001C02400018004010B50021A8
:104F80000148FFF7DEF810BD0018004070B5044678
:104F90000D4604480480294602482838FFF7D1F816
:104FA00070BD0000281800402DE9F05F05468846D6
:104FB00091469A46DDF828B07DB1B8F1000F0CD0CB
:104FC000B9F1000F09D0BAF1000F06D0BBF1000F04
:104FD00003D00B9808B10C9808B9BDE8F09F0026E3
:104FE00000270024288A698A401A04B2002C03DAB8
:104FF00041F6FF70204404B2204604EBD0712A8AA7
:10500000A2EB61010CB2B4F5005F04DBA4F5F8502B
:10501000FF3804B205E0002C03DA41F6FF702044AB
:1050200004B2A8F80040B8F80010288A01F04AFB42
:105030008AED000AB8F80010688A01F043FB8BED96
:10504000000A95ED020ADFED370A80EE201ABDEE68
:10505000C10A10EE100A04B2A88A001B06B295ED30
:10506000030ADFED300A80EE201ABDEEC10A10EE11
:10507000100A04B2E88A001B07B2B6F5005F04DB31
:10508000A6F5F850FF3806B205E0002E03DA41F627
:10509000FF70304406B2B7F5005F04DBA7F5F850A7
:1050A000FF3807B205E0002F03DA41F6FF703844FD
:1050B00007B2F01B04B2B4F5805F04DDA4F5F8502C
:1050C000FF3804B206E014F5805F03DA41F6FF70A2
:1050D000204404B2204604EBD071A6EB61010CB26F
:1050E000B4F5005F04DBA4F5F850FF3804B205E026
:1050F000002C03DA41F6FF70204404B2A9F8004006
:10510000B9F80010A88A01F0DDFA0B9880ED000ACA
:10511000B9F80010E88A01F0D5FA0C9880ED000A81
:1051200000BF5AE7DB0F493AF8B50024002500BF5D
:1051300069E0364968180122694600F041FA9DF895
:10514000000004EB840101EBC401314A50549DF886
:10515000010004EB840101EBC401114448709DF887
:10516000020004EB840101EBC401114488709DF836
:10517000030004EB840101EBC4011144C870281D35
:1051800085B204EB840303EBC403164633441B7956
:1051900003F07F0204EB840303EBC4033344D3F82E
:1051A00005101A4BE81800F00BFA04EB840000EB32
:1051B000C40031460844007900F07F0005EB800010
:1051C00085B204EB840000EBC4000844C078552885
:1051D00017D004EB840000EBC4000844D0F80900A9
:1051E00078B104EB840000EBC4000844007920F09F
:1051F0008000803004EB840101EBC401324611448D
:105200000871601CC4B2052C93DBF8BD00001E08B9
:10521000B80502207CB506460D463446ADB994ED7E
:10522000042AF0EE421A94ED032AB0EE421A94EDED
:10523000022AF0EE420A94ED012AB0EE420A618899
:10524000208802F0D5FA00207CBD012D16D104F192
:105250001000011F0B1F221DCDE90010A11C2046CC
:1052600000F0C2F818B1FFF789FE0120ECE744F620
:1052700020611F20FFF78AFE0020E5E70020E3E71A
:1052800070B506460C46354634B9294605F10C0082
:10529000FDF7F2FC002070BD012C1BD10E4A2946FF
:1052A00005F10C00FDF7AEFC0B48008844F62061C8
:1052B000884206DD002008490880FFF75FFE0120D4
:1052C000E9E7FDF7EBFF42F210715F20FFF75EFEAA
:1052D0000020E0E70020DEE7F600002070B505467C
:1052E0000C460CB9012070BD00200F49087000F079
:1052F000F5FABDEEC00A10EE100A0A3040B20A49B3
:105300004870084690F901002D2801DD2D204870D5
:1053100043F23900044948809FED040A10EE100A58
:1053200048600120DFE70000AC000020DF8FB441BF
:1053300010B5002400BF26E02748015D04EB84007F
:1053400000EBC400254A1044007961F3060004EB29
:10535000840101EBC40111440871214850F8240074
:1053600004EB840101EBC4011144C1F805001D48A0
:1053700050F8240004EB840101EBC4011144C1F88E
:105380000900601CC4B2052CD6DBFFF7CDFE00245B
:105390001FE004EB840000EBC40010490844C0780F
:1053A000552814D104EB840000EBC4000844D0F865
:1053B000090060B10A4951F8240004EB840101EBB3
:1053C000C401064B1944D1F8092000219047601C04
:1053D000C4B2052CDDDB10BDC8000020B8050220DA
:1053E000B4000020D00000202DE9FE4304460D4605
:1053F00016461F46DDE90A892C4890F8E40160BB97
:1054000001212A4880F8E41190ED6B0A80ED750ABD
:10541000D0F8EC0001882548A0F8E01190ED330A9F
:1054200080ED730AC06801882048A0F8DC1190ED77
:105430006B0A80ED760AD0F8EC0001881B48A0F8D2
:10544000E21190ED330A80ED740AC06801881748B4
:10545000A0F8DE110020BDE8FE83144890F8E401B6
:10546000052820D133462A46214611488DE880037D
:10547000FFF79AFD21880D48A0F8BA1096ED000AB2
:1054800080ED2F0A97ED000A80ED300A2988A0F8F8
:105490009A1198ED000A80ED670A99ED000A80EDF7
:1054A000680A0120D7E70020D5E70000C4070220E2
:1054B0009009022070B504460025681FFEF720FB06
:1054C000134800681349B0FBF1F013490870104805
:1054D00000684FF4FA51B0FBF1F0104908600CB9C4
:1054E0004FF47A740A480068B0FBF4F0C5086D1EEA
:1054F0004FF0E020006940F002004FF0E021086129
:1055000008464561006940F00100086170BD000077
:105510000000002000127A009C000020A000002063
:1055200070B50346002400210020002200254FF022
:10553000E02675690D4E366803FB06F44FF0E02651
:10554000B16910E04FF0E026B06988420BD0884284
:1055500002D20E1A324402E02E1A0E4432440146A0
:10556000A24200D300E0EDE700BF70BDA000002024
:1055700070B50346002400210020002200254FF0D2
:10558000E02675690D4E367803FB06F44FF0E026F1
:10559000B16910E04FF0E026B06988420BD0884234
:1055A00002D20E1A324402E02E1A0E443244014650
:1055B000A24200D300E0EDE700BF70BD9C000020D8
:1055C00038B500230024044600BF06E02568009596
:1055D000009D0D60241D091D5B1C9342F6D338BD50
:1055E00010B504464FF4807040FA04F10148FDF70D
:1055F00067F810BD0018024010B504462146024865
:10560000FEF79FFD10BD00000000014010B50446EC
:1056100021460248FEF799FD10BD00000000014040
:1056200000B58BB001210846FDF7CEFC012110200A
:10563000FDF7CAFC01210846FDF7F6FC012208210E
:105640004448FDF70FF801220E214348FDF70AF800
:105650004FF48070099002208DF8280000208DF80A
:1056600029008DF82A008DF82B0009A93948FCF78C
:10567000B1FF4FF48040099009A93748FCF7AAFF11
:1056800001210846FDF7E0FC00210120FDF7DCFCCC
:1056900040F2CF700790B320ADF818000020ADF8AD
:1056A0001A00ADF8200006A92C48FEF751FD602035
:1056B000ADF804000120ADF806000020ADF81000A0
:1056C000ADF808000820ADF812004001ADF8140054
:1056D0000020ADF816004FF47A70039001A91F481E
:1056E000FEF73EFC01A91D48FEF7E2FC08211B481D
:1056F000FEF774FC08211948FEF716FD0121174832
:10570000FEF722FB01211548FEF739FB0121134862
:10571000FEF729FB00F026F801212020FDF754FCBC
:105720004FF48060099000208DF828008DF82A0041
:1057300003208DF8290001208DF82B0009A90848C5
:10574000FCF748FF4FF480610548FCF7B9FF0BB048
:1057500000BD0000000002400010024000000140B7
:105760000014024010B54FF47A710448FEF7E9FCCA
:105770004FF47A710148FEF7E8FC10BD00000140CB
:1057800010B5044632210B48FBF745F801231A46B1
:1057900021460848FBF79EF80648FBF7F7F800BFDC
:1057A00002210448FBF762F80028F9D00148FBF712
:1057B00059F810BD0020014000487047480A0220F7
:1057C00000487047240A022000487047060602205D
:1057D000004870471006022000487047FC05022070
:1057E0002DE9F04104460D4616461F4614B10DB191
:1057F00006B10FB9BDE8F081D4ED010A94ED031AAA
:1058000060EE810A94ED001AD4ED021A41EE610AAD
:10581000B8EE001A60EE810AB0EE600AFBF7D2F82B
:1058200086ED000A94ED001A21EE011AD4ED011A5A
:1058300094ED012A01EE821AF7EE001AB0EE002A6A
:1058400052EE011AF0EE610A94ED001AD4ED031A3B
:1058500021EE211AD4ED011A94ED022A01EE821AEA
:10586000F0EE001A21EE211AB0EE410AFBF7B6F86D
:1058700085ED000A94ED001A21EE011AD4ED031A09
:1058800094ED032A01EE821AF7EE001AB0EE002A18
:1058900052EE011AF0EE610A94ED001AD4ED011AED
:1058A00021EE211AD4ED021A94ED032A01EE821A98
:1058B000F0EE001A21EE211AB0EE410AFBF78EF845
:1058C00087ED000A00BF95E7014890F90100704795
:1058D000AC00002000487047D00A022010B52DED22
:1058E000028B002008EE900A02F040FB1220FFF726
:1058F00047FF08EE900AB8EE680ADFED0C0A20EECA
:10590000200AB0EE408A9FED0A0A38EE400ADFED29
:10591000090A80EE201AB3EE090A31EE000AB0EE51
:10592000408AB0EE480ABDEC028B10BD3333533AC7
:105930005C8F423F0AD7233B2DE9F0412DED048BCC
:1059400005460E4614460DB106B11CB9BDEC048BDC
:10595000BDE8F0812068808A00F40070D8B13C482E
:10596000008800F40070B0B93A48007898B9012076
:1059700038490870D4ED330A9FED371A70EE810A6A
:10598000B0EE600A9FED341ADFED340A00F05EFEDF
:10599000334880ED000A2068808A2D4908802D4810
:1059A000007820B3D4ED330A2D4890ED001A71EE43
:1059B000600AB0EE600A9FED281ADFED280A00F0B9
:1059C00045FEB5EEC00AF1EE10FA08DD95ED000ACD
:1059D000DFED240A30EE200A85ED000A07E095EDA0
:1059E000000ADFED200A30EE600A85ED000A194852
:1059F000007858B3D4ED330A194890ED001A71EECF
:105A0000600AB0EE600A9FED141ADFED140A00F090
:105A10001DFE10EE107A384604F0D4F841EC190B54
:105A2000B0EE490AF0EE690AFEF7B0FFB0EE408A28
:105A3000F0EE608A9FED0C0B53EC102B51EC180B21
:105A400003F0E0FD02D200200249087000BF7DE7AC
:105A50002201002024010020DB0F4940DB0F49C058
:105A6000280100200AD7233D00000040E17A843F4E
:105A700070B505460E4614460DB106B104B970BDA9
:105A80002068B0F904000A2805DC2068B0F9040099
:105A900010F10A0F04DA206880884849088002E083
:105AA0000020464908802068B0F906000A2805DC75
:105AB0002068B0F9060010F10A0F04DA2068C088E7
:105AC0003F49088002E000203D4908803B48B0F98A
:105AD000000000EE100AB8EEC00ADFED3A0A20EE30
